{
  "address": "0xbF564fe62F4a2F67898d84738C9ED6Fcb015e6b8",
  "abi": [
    {
      "inputs": [
        {
          "internalType": "address",
          "name": "_worldId",
          "type": "address"
        },
        {
          "internalType": "string",
          "name": "_appId",
          "type": "string"
        },
        {
          "internalType": "string",
          "name": "_actionId",
          "type": "string"
        }
      ],
      "stateMutability": "nonpayable",
      "type": "constructor"
    },
    {
      "anonymous": false,
      "inputs": [
        {
          "indexed": true,
          "internalType": "address",
          "name": "previousOwner",
          "type": "address"
        },
        {
          "indexed": true,
          "internalType": "address",
          "name": "newOwner",
          "type": "address"
        }
      ],
      "name": "OwnershipTransferred",
      "type": "event"
    },
    {
      "inputs": [
        {
          "internalType": "address",
          "name": "",
          "type": "address"
        }
      ],
      "name": "balances",
      "outputs": [
        {
          "internalType": "uint256",
          "name": "",
          "type": "uint256"
        }
      ],
      "stateMutability": "view",
      "type": "function"
    },
    {
      "inputs": [
        {
          "internalType": "uint256",
          "name": "price",
          "type": "uint256"
        },
        {
          "internalType": "address",
          "name": "verifier",
          "type": "address"
        }
      ],
      "name": "deployModel",
      "outputs": [
        {
          "internalType": "address",
          "name": "",
          "type": "address"
        }
      ],
      "stateMutability": "nonpayable",
      "type": "function"
    },
    {
      "inputs": [],
      "name": "deposit",
      "outputs": [],
      "stateMutability": "payable",
      "type": "function"
    },
    {
      "inputs": [
        {
          "internalType": "address",
          "name": "_model",
          "type": "address"
        },
        {
          "internalType": "uint256",
          "name": "promptCommitment",
          "type": "uint256"
        },
        {
          "internalType": "uint256",
          "name": "aigcData",
          "type": "uint256"
        },
        {
          "internalType": "string",
          "name": "uri",
          "type": "string"
        },
        {
          "internalType": "bytes",
          "name": "proof",
          "type": "bytes"
        },
        {
          "internalType": "address",
          "name": "to",
          "type": "address"
        },
        {
          "internalType": "uint256",
          "name": "root",
          "type": "uint256"
        },
        {
          "internalType": "uint256",
          "name": "nullifierHash",
          "type": "uint256"
        },
        {
          "internalType": "uint256[8]",
          "name": "worldId_proof",
          "type": "uint256[8]"
        }
      ],
      "name": "freeMint",
      "outputs": [],
      "stateMutability": "nonpayable",
      "type": "function"
    },
    {
      "inputs": [
        {
          "internalType": "address",
          "name": "_user",
          "type": "address"
        }
      ],
      "name": "getBalance",
      "outputs": [
        {
          "internalType": "uint256",
          "name": "",
          "type": "uint256"
        }
      ],
      "stateMutability": "view",
      "type": "function"
    },
    {
      "inputs": [
        {
          "internalType": "address",
          "name": "_model",
          "type": "address"
        },
        {
          "internalType": "uint256",
          "name": "promptCommitment",
          "type": "uint256"
        },
        {
          "internalType": "uint256",
          "name": "aigcData",
          "type": "uint256"
        },
        {
          "internalType": "string",
          "name": "uri",
          "type": "string"
        },
        {
          "internalType": "bytes",
          "name": "proof",
          "type": "bytes"
        },
        {
          "internalType": "bytes",
          "name": "signedPrompt",
          "type": "bytes"
        },
        {
          "internalType": "address",
          "name": "to",
          "type": "address"
        }
      ],
      "name": "mintGMASS",
      "outputs": [],
      "stateMutability": "payable",
      "type": "function"
    },
    {
      "inputs": [],
      "name": "owner",
      "outputs": [
        {
          "internalType": "address",
          "name": "",
          "type": "address"
        }
      ],
      "stateMutability": "view",
      "type": "function"
    },
    {
      "inputs": [
        {
          "internalType": "address",
          "name": "",
          "type": "address"
        }
      ],
      "name": "prices",
      "outputs": [
        {
          "internalType": "uint256",
          "name": "",
          "type": "uint256"
        }
      ],
      "stateMutability": "view",
      "type": "function"
    },
    {
      "inputs": [],
      "name": "renounceOwnership",
      "outputs": [],
      "stateMutability": "nonpayable",
      "type": "function"
    },
    {
      "inputs": [
        {
          "internalType": "address",
          "name": "newOwner",
          "type": "address"
        }
      ],
      "name": "transferOwnership",
      "outputs": [],
      "stateMutability": "nonpayable",
      "type": "function"
    },
    {
      "inputs": [],
      "name": "withdraw",
      "outputs": [],
      "stateMutability": "nonpayable",
      "type": "function"
    },
    {
      "inputs": [],
      "name": "worldId",
      "outputs": [
        {
          "internalType": "contract WorldID",
          "name": "",
          "type": "address"
        }
      ],
      "stateMutability": "view",
      "type": "function"
    }
  ],
  "transactionHash": "0xbf94d5e0a09f014f0adf88e911f46b599bed40fc3d549dad23fa2fd79577b78d",
  "args": [
    "0x719683F13Eeea7D84fCBa5d7d17Bf82e03E3d260",
    "app_staging_20ad19bc247ebb95a2fe7023f096f13d",
    "login"
  ],
  "numDeployments": 1,
  "solcInputHash": "a5792b3f6fd314ac850c35da1dd78b5a",
  "bytecode": "0x60a06040523480156200001157600080fd5b5060405162003383380380620033838339810160408190526200003491620001bd565b6200003f3362000092565b8282826040516200005090620000e2565b6200005e9392919062000275565b604051809103906000f0801580156200007b573d6000803e3d6000fd5b506001600160a01b031660805250620002af915050565b600080546001600160a01b038381166001600160a01b0319831681178455604051919092169283917f8be0079c531659141344cd1fd0a4f28419497f9722a3daafe3b4186f6b6457e09190a35050565b6105438062002e4083390190565b634e487b7160e01b600052604160045260246000fd5b60005b838110156200012357818101518382015260200162000109565b50506000910152565b600082601f8301126200013e57600080fd5b81516001600160401b03808211156200015b576200015b620000f0565b604051601f8301601f19908116603f01168101908282118183101715620001865762000186620000f0565b81604052838152866020858801011115620001a057600080fd5b620001b384602083016020890162000106565b9695505050505050565b600080600060608486031215620001d357600080fd5b83516001600160a01b0381168114620001eb57600080fd5b60208501519093506001600160401b03808211156200020957600080fd5b62000217878388016200012c565b935060408601519150808211156200022e57600080fd5b506200023d868287016200012c565b9150509250925092565b600081518084526200026181602086016020860162000106565b601f01601f19169290920160200192915050565b6001600160a01b03841681526060602082018190526000906200029b9083018562000247565b8281036040840152620001b3818562000247565b608051612b6e620002d26000396000818161018201526105ab0152612b6e6000f3fe608060405260043610620000b55760003560e01c80638da5cb5b116200006c5780638da5cb5b14620001bb578063a24235a514620001db578063cfed246b1462000200578063d0e30db01462000231578063f2fde38b146200023b578063f8b2cb4f146200026057600080fd5b806327e235e314620000ba5780633ccfd60b14620000fe578063614964401462000118578063715018a61462000156578063753e9ef0146200016e57806380d5cc3014620001a4575b600080fd5b348015620000c757600080fd5b50620000eb620000d936600462000abf565b60016020526000908152604090205481565b6040519081526020015b60405180910390f35b3480156200010b57600080fd5b50620001166200029a565b005b3480156200012557600080fd5b506200013d6200013736600462000ae4565b620002e0565b6040516001600160a01b039091168152602001620000f5565b3480156200016357600080fd5b506200011662000350565b3480156200017b57600080fd5b506200013d7f000000000000000000000000000000000000000000000000000000000000000081565b62000116620001b536600462000b6e565b62000368565b348015620001c857600080fd5b506000546001600160a01b03166200013d565b348015620001e857600080fd5b5062000116620001fa36600462000cbb565b6200058a565b3480156200020d57600080fd5b50620000eb6200021f36600462000abf565b60026020526000908152604090205481565b62000116620006aa565b3480156200024857600080fd5b50620001166200025a36600462000abf565b620006d2565b3480156200026d57600080fd5b50620000eb6200027f36600462000abf565b6001600160a01b031660009081526001602052604090205490565b33600081815260016020526040808220805490839055905190929183156108fc02918491818181858888f19350505050158015620002dc573d6000803e3d6000fd5b5050565b6000620002ec62000751565b600082604051620002fd9062000a94565b6001600160a01b039091168152602001604051809103906000f0801580156200032a573d6000803e3d6000fd5b506001600160a01b03811660009081526002602052604090208590559150505b92915050565b6200035a62000751565b620003666000620007ad565b565b6200037262000751565b6001600160a01b03808a16600090815260026020908152604080832054938516835260019091529020541015620003e75760405162461bcd60e51b8152602060048201526014602482015273125b9cdd59999a58da595b9d081c185e5b595b9d60621b60448201526064015b60405180910390fd5b600088604051602001620003fd91815260200190565b604051602081830303815290604052805190602001209050620004598362000452837f19457468657265756d205369676e6564204d6573736167653a0a3332000000006000908152601c91909152603c902090565b90620007fd565b6001600160a01b0316826001600160a01b0316146200047757600080fd5b6001600160a01b038a16600090815260026020526040808220549051339282156108fc02929190818181858888f19350505050158015620004bc573d6000803e3d6000fd5b506001600160a01b03808b166000908152600260209081526040808320549386168352600190915281208054909190620004f890849062000db2565b90915550506040516371b24d0b60e11b81526001600160a01b038b169063e3649a169062000537908c908c908c908c908c908c908b9060040162000df1565b6020604051808303816000875af115801562000557573d6000803e3d6000fd5b505050506040513d601f19601f820116820180604052508101906200057d919062000e45565b5050505050505050505050565b6200059462000751565b604051631e6ab53360e01b81526001600160a01b037f00000000000000000000000000000000000000000000000000000000000000001690631e6ab53390620005e890879087908790879060040162000e5f565b600060405180830381600087803b1580156200060357600080fd5b505af115801562000618573d6000803e3d6000fd5b50506040516371b24d0b60e11b81526001600160a01b038e16925063e3649a16915062000656908d908d908d908d908d908d908d9060040162000df1565b6020604051808303816000875af115801562000676573d6000803e3d6000fd5b505050506040513d601f19601f820116820180604052508101906200069c919062000e45565b505050505050505050505050565b3360009081526001602052604081208054349290620006cb90849062000e90565b9091555050565b620006dc62000751565b6001600160a01b038116620007435760405162461bcd60e51b815260206004820152602660248201527f4f776e61626c653a206e6577206f776e657220697320746865207a65726f206160448201526564647265737360d01b6064820152608401620003de565b6200074e81620007ad565b50565b6000546001600160a01b03163314620003665760405162461bcd60e51b815260206004820181905260248201527f4f776e61626c653a2063616c6c6572206973206e6f7420746865206f776e65726044820152606401620003de565b600080546001600160a01b038381166001600160a01b0319831681178455604051919092169283917f8be0079c531659141344cd1fd0a4f28419497f9722a3daafe3b4186f6b6457e09190a35050565b60008060006200080e858562000825565b915091506200081d816200086e565b509392505050565b60008082516041036200085f5760208301516040840151606085015160001a6200085287828585620009cb565b9450945050505062000867565b506000905060025b9250929050565b600081600481111562000885576200088562000ea6565b036200088e5750565b6001816004811115620008a557620008a562000ea6565b03620008f45760405162461bcd60e51b815260206004820152601860248201527f45434453413a20696e76616c6964207369676e617475726500000000000000006044820152606401620003de565b60028160048111156200090b576200090b62000ea6565b036200095a5760405162461bcd60e51b815260206004820152601f60248201527f45434453413a20696e76616c6964207369676e6174757265206c656e677468006044820152606401620003de565b600381600481111562000971576200097162000ea6565b036200074e5760405162461bcd60e51b815260206004820152602260248201527f45434453413a20696e76616c6964207369676e6174757265202773272076616c604482015261756560f01b6064820152608401620003de565b6000807f7fffffffffffffffffffffffffffffff5d576e7357a4501ddfe92f46681b20a083111562000a04575060009050600362000a8b565b6040805160008082526020820180845289905260ff881692820192909252606081018690526080810185905260019060a0016020604051602081039080840390855afa15801562000a59573d6000803e3d6000fd5b5050604051601f1901519150506001600160a01b03811662000a845760006001925092505062000a8b565b9150600090505b94509492505050565b611c7c8062000ebd83390190565b80356001600160a01b038116811462000aba57600080fd5b919050565b60006020828403121562000ad257600080fd5b62000add8262000aa2565b9392505050565b6000806040838503121562000af857600080fd5b8235915062000b0a6020840162000aa2565b90509250929050565b60008083601f84011262000b2657600080fd5b50813567ffffffffffffffff81111562000b3f57600080fd5b6020830191508360208285010111156200086757600080fd5b634e487b7160e01b600052604160045260246000fd5b600080600080600080600080600060e08a8c03121562000b8d57600080fd5b62000b988a62000aa2565b985060208a0135975060408a0135965060608a013567ffffffffffffffff8082111562000bc457600080fd5b62000bd28d838e0162000b13565b909850965060808c013591508082111562000bec57600080fd5b62000bfa8d838e0162000b13565b909650945060a08c013591508082111562000c1457600080fd5b818c0191508c601f83011262000c2957600080fd5b81358181111562000c3e5762000c3e62000b58565b604051601f8201601f19908116603f0116810190838211818310171562000c695762000c6962000b58565b816040528281528f602084870101111562000c8357600080fd5b82602086016020830137600060208483010152809650505050505062000cac60c08b0162000aa2565b90509295985092959850929598565b60008060008060008060008060008060006102008c8e03121562000cde57600080fd5b62000ce98c62000aa2565b9a5060208c0135995060408c0135985067ffffffffffffffff8060608e0135111562000d1457600080fd5b62000d268e60608f01358f0162000b13565b909950975060808d013581101562000d3d57600080fd5b5062000d508d60808e01358e0162000b13565b909650945062000d6360a08d0162000aa2565b935060c08c0135925060e08c013591508c6102008d01111562000d8557600080fd5b6101008c0190509295989b509295989b9093969950565b634e487b7160e01b600052601160045260246000fd5b818103818111156200034a576200034a62000d9c565b81835281816020850137506000828201602090810191909152601f909101601f19169091010190565b87815286602082015260a06040820152600062000e1360a08301878962000dc8565b828103606084015262000e2881868862000dc8565b91505060018060a01b038316608083015298975050505050505050565b60006020828403121562000e5857600080fd5b5051919050565b6001600160a01b03851681526020810184905260408101839052610160810161010083606084013795945050505050565b808201808211156200034a576200034a62000d9c565b634e487b7160e01b600052602160045260246000fdfe60806040523480156200001157600080fd5b5060405162001c7c38038062001c7c833981016040819052620000349162000105565b60405180604001604052806005815260200164474d41535360d81b81525060405180604001604052806005815260200164474d41535360d81b8152506200008a62000084620000b160201b60201c565b620000b5565b6001620000988382620001dc565b506002620000a78282620001dc565b50505050620002a8565b3390565b600080546001600160a01b038381166001600160a01b0319831681178455604051919092169283917f8be0079c531659141344cd1fd0a4f28419497f9722a3daafe3b4186f6b6457e09190a35050565b6000602082840312156200011857600080fd5b81516001600160a01b03811681146200013057600080fd5b9392505050565b634e487b7160e01b600052604160045260246000fd5b600181811c908216806200016257607f821691505b6020821081036200018357634e487b7160e01b600052602260045260246000fd5b50919050565b601f821115620001d757600081815260208120601f850160051c81016020861015620001b25750805b601f850160051c820191505b81811015620001d357828155600101620001be565b5050505b505050565b81516001600160401b03811115620001f857620001f862000137565b62000210816200020984546200014d565b8462000189565b602080601f8311600181146200024857600084156200022f5750858301515b600019600386901b1c1916600185901b178555620001d3565b600085815260208120601f198616915b82811015620002795788860151825594840194600190910190840162000258565b5085821015620002985787850151600019600388901b60f8161c191681555b5050505050600190811b01905550565b6119c480620002b86000396000f3fe608060405234801561001057600080fd5b50600436106101375760003560e01c806370a08231116100b8578063b857e3861161007c578063b857e38614610276578063b88d4fde14610289578063c87b56dd1461029c578063e3649a16146102af578063e985e9c5146102c2578063f2fde38b146102d557600080fd5b806370a082311461022f578063715018a6146102425780638da5cb5b1461024a57806395d89b411461025b578063a22cb4651461026357600080fd5b80632b7ac3f3116100ff5780632b7ac3f3146101cc57806342842e0e146101df57806361bc221a146101f25780636352211e146102095780636c8b703f1461021c57600080fd5b806301ffc9a71461013c57806306fdde0314610164578063081812fc14610179578063095ea7b3146101a457806323b872dd146101b9575b600080fd5b61014f61014a366004611249565b6102e8565b60405190151581526020015b60405180910390f35b61016c61033a565b60405161015b91906112b6565b61018c6101873660046112c9565b6103cc565b6040516001600160a01b03909116815260200161015b565b6101b76101b23660046112fe565b6103f3565b005b6101b76101c7366004611328565b61050d565b60085461018c906001600160a01b031681565b6101b76101ed366004611328565b61053e565b6101fb60075481565b60405190815260200161015b565b61018c6102173660046112c9565b610559565b61016c61022a3660046112c9565b6105b9565b6101fb61023d366004611364565b610653565b6101b76106d9565b6000546001600160a01b031661018c565b61016c6106ed565b6101b761027136600461138d565b6106fc565b61014f61028436600461140d565b61070b565b6101b7610297366004611476565b610724565b61016c6102aa3660046112c9565b61075c565b6101fb6102bd366004611552565b6107d0565b61014f6102d03660046115e6565b610878565b6101b76102e3366004611364565b6108a6565b60006001600160e01b031982166380ac58cd60e01b148061031957506001600160e01b03198216635b5e139f60e01b145b8061033457506301ffc9a760e01b6001600160e01b03198316145b92915050565b60606001805461034990611619565b80601f016020809104026020016040519081016040528092919081815260200182805461037590611619565b80156103c25780601f10610397576101008083540402835291602001916103c2565b820191906000526020600020905b8154815290600101906020018083116103a557829003601f168201915b5050505050905090565b60006103d78261091f565b506000908152600560205260409020546001600160a01b031690565b60006103fe82610559565b9050806001600160a01b0316836001600160a01b0316036104705760405162461bcd60e51b815260206004820152602160248201527f4552433732313a20617070726f76616c20746f2063757272656e74206f776e656044820152603960f91b60648201526084015b60405180910390fd5b336001600160a01b038216148061048c575061048c8133610878565b6104fe5760405162461bcd60e51b815260206004820152603d60248201527f4552433732313a20617070726f76652063616c6c6572206973206e6f7420746f60448201527f6b656e206f776e6572206f7220617070726f76656420666f7220616c6c0000006064820152608401610467565b610508838361097e565b505050565b61051733826109ec565b6105335760405162461bcd60e51b815260040161046790611653565b610508838383610a4a565b61050883838360405180602001604052806000815250610724565b6000818152600360205260408120546001600160a01b0316806103345760405162461bcd60e51b8152602060048201526018602482015277115490cdcc8c4e881a5b9d985b1a59081d1bdad95b88125160421b6044820152606401610467565b600960205260009081526040902080546105d290611619565b80601f01602080910402602001604051908101604052809291908181526020018280546105fe90611619565b801561064b5780601f106106205761010080835404028352916020019161064b565b820191906000526020600020905b81548152906001019060200180831161062e57829003601f168201915b505050505081565b60006001600160a01b0382166106bd5760405162461bcd60e51b815260206004820152602960248201527f4552433732313a2061646472657373207a65726f206973206e6f7420612076616044820152683634b21037bbb732b960b91b6064820152608401610467565b506001600160a01b031660009081526004602052604090205490565b6106e1610bae565b6106eb6000610c08565b565b60606002805461034990611619565b610707338383610c58565b5050565b600061071985858585610d26565b90505b949350505050565b61072e33836109ec565b61074a5760405162461bcd60e51b815260040161046790611653565b61075684848484610e0c565b50505050565b60606107678261091f565b600061077e60408051602081019091526000815290565b9050600081511161079e57604051806020016040528060008152506107c9565b806107a884610e3f565b6040516020016107b99291906116a0565b6040516020818303038152906040525b9392505050565b60006107da610bae565b6107e688888686610d26565b6108285760405162461bcd60e51b815260206004820152601360248201527215995c9a599a58d85d1a5bdb8819985a5b1959606a1b6044820152606401610467565b61083482600754610ed2565b600754600090815260096020526040902061085086888361171d565b5060016007600082825461086491906117de565b909155505060075498975050505050505050565b6001600160a01b03918216600090815260066020908152604080832093909416825291909152205460ff1690565b6108ae610bae565b6001600160a01b0381166109135760405162461bcd60e51b815260206004820152602660248201527f4f776e61626c653a206e6577206f776e657220697320746865207a65726f206160448201526564647265737360d01b6064820152608401610467565b61091c81610c08565b50565b6000818152600360205260409020546001600160a01b031661091c5760405162461bcd60e51b8152602060048201526018602482015277115490cdcc8c4e881a5b9d985b1a59081d1bdad95b88125160421b6044820152606401610467565b600081815260056020526040902080546001600160a01b0319166001600160a01b03841690811790915581906109b382610559565b6001600160a01b03167f8c5be1e5ebec7d5bd14f71427d1e84f3dd0314c0f7b2291e5b200ac8c7c3b92560405160405180910390a45050565b6000806109f883610559565b9050806001600160a01b0316846001600160a01b03161480610a1f5750610a1f8185610878565b8061071c5750836001600160a01b0316610a38846103cc565b6001600160a01b031614949350505050565b826001600160a01b0316610a5d82610559565b6001600160a01b031614610a835760405162461bcd60e51b8152600401610467906117ff565b6001600160a01b038216610ae55760405162461bcd60e51b8152602060048201526024808201527f4552433732313a207472616e7366657220746f20746865207a65726f206164646044820152637265737360e01b6064820152608401610467565b826001600160a01b0316610af882610559565b6001600160a01b031614610b1e5760405162461bcd60e51b8152600401610467906117ff565b600081815260056020908152604080832080546001600160a01b03199081169091556001600160a01b0387811680865260048552838620805460001901905590871680865283862080546001019055868652600390945282852080549092168417909155905184937fddf252ad1be2c89b69c2b068fc378daa952ba7f163c4a11628f55a4df523b3ef91a4505050565b6000546001600160a01b031633146106eb5760405162461bcd60e51b815260206004820181905260248201527f4f776e61626c653a2063616c6c6572206973206e6f7420746865206f776e65726044820152606401610467565b600080546001600160a01b038381166001600160a01b0319831681178455604051919092169283917f8be0079c531659141344cd1fd0a4f28419497f9722a3daafe3b4186f6b6457e09190a35050565b816001600160a01b0316836001600160a01b031603610cb95760405162461bcd60e51b815260206004820152601960248201527f4552433732313a20617070726f766520746f2063616c6c6572000000000000006044820152606401610467565b6001600160a01b03838116600081815260066020908152604080832094871680845294825291829020805460ff191686151590811790915591519182527f17307eab39ab6107e8899845ad3d59bd9653f200f220920489ca2b5937696c31910160405180910390a3505050565b604080516001808252818301909252600091829190602080830190803683370190505090508581600081518110610d5f57610d5f611844565b6020026020010181815250508481600181518110610d7f57610d7f611844565b6020908102919091010152600854604051630bd205a960e41b81526001600160a01b0390911690819063bd205a9090610dc09085908990899060040161185a565b602060405180830381865afa158015610ddd573d6000803e3d6000fd5b505050506040513d601f19601f82011682018060405250810190610e0191906118c5565b979650505050505050565b610e17848484610a4a565b610e238484848461105d565b6107565760405162461bcd60e51b8152600401610467906118e2565b60606000610e4c8361115b565b600101905060008167ffffffffffffffff811115610e6c57610e6c611460565b6040519080825280601f01601f191660200182016040528015610e96576020820181803683370190505b5090508181016020015b600019016f181899199a1a9b1b9c1cb0b131b232b360811b600a86061a8153600a8504945084610ea057509392505050565b6001600160a01b038216610f285760405162461bcd60e51b815260206004820181905260248201527f4552433732313a206d696e7420746f20746865207a65726f20616464726573736044820152606401610467565b6000818152600360205260409020546001600160a01b031615610f8d5760405162461bcd60e51b815260206004820152601c60248201527f4552433732313a20746f6b656e20616c7265616479206d696e746564000000006044820152606401610467565b6000818152600360205260409020546001600160a01b031615610ff25760405162461bcd60e51b815260206004820152601c60248201527f4552433732313a20746f6b656e20616c7265616479206d696e746564000000006044820152606401610467565b6001600160a01b038216600081815260046020908152604080832080546001019055848352600390915280822080546001600160a01b0319168417905551839291907fddf252ad1be2c89b69c2b068fc378daa952ba7f163c4a11628f55a4df523b3ef908290a45050565b60006001600160a01b0384163b1561115357604051630a85bd0160e11b81526001600160a01b0385169063150b7a02906110a1903390899088908890600401611934565b6020604051808303816000875af19250505080156110dc575060408051601f3d908101601f191682019092526110d991810190611971565b60015b611139573d80801561110a576040519150601f19603f3d011682016040523d82523d6000602084013e61110f565b606091505b5080516000036111315760405162461bcd60e51b8152600401610467906118e2565b805181602001fd5b6001600160e01b031916630a85bd0160e11b14905061071c565b50600161071c565b60008072184f03e93ff9f4daa797ed6e38ed64bf6a1f0160401b831061119a5772184f03e93ff9f4daa797ed6e38ed64bf6a1f0160401b830492506040015b6d04ee2d6d415b85acef810000000083106111c6576d04ee2d6d415b85acef8100000000830492506020015b662386f26fc1000083106111e457662386f26fc10000830492506010015b6305f5e10083106111fc576305f5e100830492506008015b612710831061121057612710830492506004015b60648310611222576064830492506002015b600a83106103345760010192915050565b6001600160e01b03198116811461091c57600080fd5b60006020828403121561125b57600080fd5b81356107c981611233565b60005b83811015611281578181015183820152602001611269565b50506000910152565b600081518084526112a2816020860160208601611266565b601f01601f19169290920160200192915050565b6020815260006107c9602083018461128a565b6000602082840312156112db57600080fd5b5035919050565b80356001600160a01b03811681146112f957600080fd5b919050565b6000806040838503121561131157600080fd5b61131a836112e2565b946020939093013593505050565b60008060006060848603121561133d57600080fd5b611346846112e2565b9250611354602085016112e2565b9150604084013590509250925092565b60006020828403121561137657600080fd5b6107c9826112e2565b801515811461091c57600080fd5b600080604083850312156113a057600080fd5b6113a9836112e2565b915060208301356113b98161137f565b809150509250929050565b60008083601f8401126113d657600080fd5b50813567ffffffffffffffff8111156113ee57600080fd5b60208301915083602082850101111561140657600080fd5b9250929050565b6000806000806060858703121561142357600080fd5b8435935060208501359250604085013567ffffffffffffffff81111561144857600080fd5b611454878288016113c4565b95989497509550505050565b634e487b7160e01b600052604160045260246000fd5b6000806000806080858703121561148c57600080fd5b611495856112e2565b93506114a3602086016112e2565b925060408501359150606085013567ffffffffffffffff808211156114c757600080fd5b818701915087601f8301126114db57600080fd5b8135818111156114ed576114ed611460565b604051601f8201601f19908116603f0116810190838211818310171561151557611515611460565b816040528281528a602084870101111561152e57600080fd5b82602086016020830137600060208483010152809550505050505092959194509250565b600080600080600080600060a0888a03121561156d57600080fd5b8735965060208801359550604088013567ffffffffffffffff8082111561159357600080fd5b61159f8b838c016113c4565b909750955060608a01359150808211156115b857600080fd5b506115c58a828b016113c4565b90945092506115d89050608089016112e2565b905092959891949750929550565b600080604083850312156115f957600080fd5b611602836112e2565b9150611610602084016112e2565b90509250929050565b600181811c9082168061162d57607f821691505b60208210810361164d57634e487b7160e01b600052602260045260246000fd5b50919050565b6020808252602d908201527f4552433732313a2063616c6c6572206973206e6f7420746f6b656e206f776e6560408201526c1c881bdc88185c1c1c9bdd9959609a1b606082015260800190565b600083516116b2818460208801611266565b8351908301906116c6818360208801611266565b01949350505050565b601f82111561050857600081815260208120601f850160051c810160208610156116f65750805b601f850160051c820191505b8181101561171557828155600101611702565b505050505050565b67ffffffffffffffff83111561173557611735611460565b611749836117438354611619565b836116cf565b6000601f84116001811461177d57600085156117655750838201355b600019600387901b1c1916600186901b1783556117d7565b600083815260209020601f19861690835b828110156117ae578685013582556020948501946001909201910161178e565b50868210156117cb5760001960f88860031b161c19848701351681555b505060018560011b0183555b5050505050565b8082018082111561033457634e487b7160e01b600052601160045260246000fd5b60208082526025908201527f4552433732313a207472616e736665722066726f6d20696e636f72726563742060408201526437bbb732b960d91b606082015260800190565b634e487b7160e01b600052603260045260246000fd5b604080825284519082018190526000906020906060840190828801845b8281101561189357815184529284019290840190600101611877565b505050838103828501528481528486838301376000818601830152601f909401601f1916909301909201949350505050565b6000602082840312156118d757600080fd5b81516107c98161137f565b60208082526032908201527f4552433732313a207472616e7366657220746f206e6f6e20455243373231526560408201527131b2b4bb32b91034b6b83632b6b2b73a32b960711b606082015260800190565b6001600160a01b03858116825284166020820152604081018390526080606082018190526000906119679083018461128a565b9695505050505050565b60006020828403121561198357600080fd5b81516107c98161123356fea2646970667358221220c40b566754f70714413187c392d93ef6c0e0040d6ed6d5c5ddc21ea003fba24564736f6c63430008120033a2646970667358221220844f5b78bb0257be74b53242b6b75d5cfeaad9a42046c04a848bf920f553af4c64736f6c6343000812003360e0604052600160c05234801561001557600080fd5b506040516105433803806105438339810160408190526100349161018c565b6001600160a01b03831660805260405161008a906100789061005a90859060200161020e565b60405160208183030381529060405261009660201b6101981760201c565b8260405160200161005a92919061022a565b60a05250610250915050565b60006008826040516020016100ab919061020e565b60408051601f198184030181529190528051602090910120901c92915050565b634e487b7160e01b600052604160045260246000fd5b60005b838110156100fc5781810151838201526020016100e4565b50506000910152565b600082601f83011261011657600080fd5b81516001600160401b0380821115610130576101306100cb565b604051601f8301601f19908116603f01168101908282118183101715610158576101586100cb565b8160405283815286602085880101111561017157600080fd5b6101828460208301602089016100e1565b9695505050505050565b6000806000606084860312156101a157600080fd5b83516001600160a01b03811681146101b857600080fd5b60208501519093506001600160401b03808211156101d557600080fd5b6101e187838801610105565b935060408601519150808211156101f757600080fd5b5061020486828701610105565b9150509250925092565b600082516102208184602087016100e1565b9190910192915050565b828152600082516102428160208501602087016100e1565b919091016020019392505050565b60805160a05160c0516102c661027d600039600060a70152600061010901526000607701526102c66000f3fe608060405234801561001057600080fd5b506004361061002b5760003560e01c80631e6ab53314610030575b600080fd5b61004361003e3660046101cd565b610045565b005b60008281526020819052604090205460ff161561007557604051632ec8265960e11b815260040160405180910390fd5b7f00000000000000000000000000000000000000000000000000000000000000006001600160a01b0316633bc778e3847f0000000000000000000000000000000000000000000000000000000000000000610106886040516020016100f2919060609190911b6bffffffffffffffffffffffff1916815260140190565b604051602081830303815290604052610198565b867f0000000000000000000000000000000000000000000000000000000000000000876040518763ffffffff1660e01b815260040161014a96959493929190610229565b60006040518083038186803b15801561016257600080fd5b505afa158015610176573d6000803e3d6000fd5b50505060009283525050602081905260409020805460ff191660011790555050565b60006008826040516020016101ad9190610261565b60408051601f198184030181529190528051602090910120901c92915050565b6000806000806101608086880312156101e557600080fd5b85356001600160a01b03811681146101fc57600080fd5b9450602086013593506040860135925080860187101561021b57600080fd5b509295919450926060019150565b60006101a0820190508782528660208301528560408301528460608301528360808301526101008360a0840137979650505050505050565b6000825160005b818110156102825760208186018101518583015201610268565b50600092019182525091905056fea264697066735822122048e3d4e116a1f889683b45f91c96127f4f5af0273c1c04d7eed2c67c9cd82b2164736f6c63430008120033",
  "devdoc": {
    "kind": "dev",
    "methods": {
      "deposit()": {
        "details": "Deposit ETH to the contract"
      },
      "owner()": {
        "details": "Returns the address of the current owner."
      },
      "renounceOwnership()": {
        "details": "Leaves the contract without owner. It will not be possible to call `onlyOwner` functions. Can only be called by the current owner. NOTE: Renouncing ownership will leave the contract without an owner, thereby disabling any functionality that is only available to the owner."
      },
      "transferOwnership(address)": {
        "details": "Transfers ownership of the contract to a new account (`newOwner`). Can only be called by the current owner."
      },
      "withdraw()": {
        "details": "Withdraw ETH from the contract"
      }
    },
    "version": 1
  },
  "userdoc": {
    "kind": "user",
    "methods": {},
    "version": 1
  },
  "storageLayout": {
    "storage": [
      {
        "astId": 7,
        "contract": "contracts/ModelMarket.sol:ModelMarket",
        "label": "_owner",
        "offset": 0,
        "slot": "0",
        "type": "t_address"
      },
      {
        "astId": 3327,
        "contract": "contracts/ModelMarket.sol:ModelMarket",
        "label": "balances",
        "offset": 0,
        "slot": "1",
        "type": "t_mapping(t_address,t_uint256)"
      },
      {
        "astId": 3331,
        "contract": "contracts/ModelMarket.sol:ModelMarket",
        "label": "prices",
        "offset": 0,
        "slot": "2",
        "type": "t_mapping(t_address,t_uint256)"
      }
    ],
    "types": {
      "t_address": {
        "encoding": "inplace",
        "label": "address",
        "numberOfBytes": "20"
      },
      "t_mapping(t_address,t_uint256)": {
        "encoding": "mapping",
        "key": "t_address",
        "label": "mapping(address => uint256)",
        "numberOfBytes": "32",
        "value": "t_uint256"
      },
      "t_uint256": {
        "encoding": "inplace",
        "label": "uint256",
        "numberOfBytes": "32"
      }
    }
  }
}