{
  "address": "0x7F862De87715902BA65e9BfCD587AF931C93E7C2",
  "abi": [
    {
      "inputs": [
        {
          "internalType": "address",
          "name": "",
          "type": "address"
        }
      ],
      "name": "balances",
      "outputs": [
        {
          "internalType": "uint256",
          "name": "",
          "type": "uint256"
        }
      ],
      "stateMutability": "view",
      "type": "function"
    },
    {
      "inputs": [],
      "name": "deposit",
      "outputs": [],
      "stateMutability": "payable",
      "type": "function"
    },
    {
      "inputs": [
        {
          "internalType": "address",
          "name": "_user",
          "type": "address"
        }
      ],
      "name": "getBalance",
      "outputs": [
        {
          "internalType": "uint256",
          "name": "",
          "type": "uint256"
        }
      ],
      "stateMutability": "view",
      "type": "function"
    },
    {
      "inputs": [],
      "name": "withdraw",
      "outputs": [],
      "stateMutability": "nonpayable",
      "type": "function"
    }
  ],
  "transactionHash": "0x43b624d12ac82348eddd25501072abd1a556a39736fdb060e1141bf19bc65355",
  "args": [],
  "numDeployments": 1,
  "solcInputHash": "ece13a6487c57c80cbf15082d3917a96",
  "bytecode": "0x608060405234801561001057600080fd5b506101d0806100206000396000f3fe60806040526004361061003f5760003560e01c806327e235e3146100445780633ccfd60b14610083578063d0e30db01461009a578063f8b2cb4f146100a2575b600080fd5b34801561005057600080fd5b5061007161005f366004610143565b60006020819052908152604090205481565b60405190815260200160405180910390f35b34801561008f57600080fd5b506100986100d8565b005b61009861011d565b3480156100ae57600080fd5b506100716100bd366004610143565b6001600160a01b031660009081526020819052604090205490565b33600081815260208190526040808220805490839055905190929183156108fc02918491818181858888f19350505050158015610119573d6000803e3d6000fd5b5050565b336000908152602081905260408120805434929061013c908490610173565b9091555050565b60006020828403121561015557600080fd5b81356001600160a01b038116811461016c57600080fd5b9392505050565b8082018082111561019457634e487b7160e01b600052601160045260246000fd5b9291505056fea264697066735822122066c1783d94f917d9606858beee15a2c9badab91e60192b0a3e297fbe990e92e064736f6c63430008120033",
  "devdoc": {
    "kind": "dev",
    "methods": {
      "deposit()": {
        "details": "Deposit ETH to the contract"
      },
      "withdraw()": {
        "details": "Withdraw ETH from the contract"
      }
    },
    "version": 1
  },
  "userdoc": {
    "kind": "user",
    "methods": {},
    "version": 1
  },
  "storageLayout": {
    "storage": [
      {
        "astId": 3500,
        "contract": "contracts/TestContract.sol:TestContract",
        "label": "balances",
        "offset": 0,
        "slot": "0",
        "type": "t_mapping(t_address,t_uint256)"
      }
    ],
    "types": {
      "t_address": {
        "encoding": "inplace",
        "label": "address",
        "numberOfBytes": "20"
      },
      "t_mapping(t_address,t_uint256)": {
        "encoding": "mapping",
        "key": "t_address",
        "label": "mapping(address => uint256)",
        "numberOfBytes": "32",
        "value": "t_uint256"
      },
      "t_uint256": {
        "encoding": "inplace",
        "label": "uint256",
        "numberOfBytes": "32"
      }
    }
  }
}