{
  "address": "0x68B2dE54FAe6E9B0EeA78b886AEd4Bd0a0Ee2699",
  "abi": [
    {
      "inputs": [
        {
          "internalType": "uint256[]",
          "name": "pubInputs",
          "type": "uint256[]"
        },
        {
          "internalType": "bytes",
          "name": "proof",
          "type": "bytes"
        }
      ],
      "name": "verify",
      "outputs": [
        {
          "internalType": "bool",
          "name": "",
          "type": "bool"
        }
      ],
      "stateMutability": "view",
      "type": "function"
    }
  ],
  "transactionHash": "0x9b85c39d0124ce044512524a19790b69f3e2fcde959d0a366703cf185afcbc27",
  "args": [],
  "numDeployments": 1,
  "solcInputHash": "ece13a6487c57c80cbf15082d3917a96",
  "bytecode": "0x608060405234801561001057600080fd5b50610157806100206000396000f3fe608060405234801561001057600080fd5b506004361061002b5760003560e01c8063bd205a9014610030575b600080fd5b61004861003e36600461005c565b6001949350505050565b604051901515815260200160405180910390f35b6000806000806040858703121561007257600080fd5b843567ffffffffffffffff8082111561008a57600080fd5b818701915087601f83011261009e57600080fd5b8135818111156100ad57600080fd5b8860208260051b85010111156100c257600080fd5b6020928301965094509086013590808211156100dd57600080fd5b818701915087601f8301126100f157600080fd5b81358181111561010057600080fd5b88602082850101111561011257600080fd5b9598949750506020019450505056fea26469706673582212208190782b43a332aa527f2aae9276daa348ff7576f27e3c2524ccf9d0593572e764736f6c63430008120033",
  "devdoc": {
    "kind": "dev",
    "methods": {},
    "version": 1
  },
  "userdoc": {
    "kind": "user",
    "methods": {},
    "version": 1
  },
  "storageLayout": {
    "storage": [],
    "types": null
  }
}